{
  "contractName": "CertChain",
  "abi": [
    {
      "constant": true,
      "inputs": [],
      "name": "certificate_counter",
      "outputs": [
        {
          "name": "",
          "type": "uint256"
        }
      ],
      "payable": false,
      "stateMutability": "view",
      "type": "function"
    },
    {
      "anonymous": false,
      "inputs": [
        {
          "indexed": false,
          "name": "issuer",
          "type": "address"
        },
        {
          "indexed": false,
          "name": "IPFS_hash",
          "type": "string"
        }
      ],
      "name": "IssuerRegistered",
      "type": "event"
    },
    {
      "anonymous": false,
      "inputs": [
        {
          "indexed": false,
          "name": "recipient",
          "type": "address"
        },
        {
          "indexed": false,
          "name": "IPFS_hash",
          "type": "string"
        }
      ],
      "name": "RecipientRegistered",
      "type": "event"
    },
    {
      "anonymous": false,
      "inputs": [
        {
          "indexed": false,
          "name": "issuer",
          "type": "address"
        },
        {
          "indexed": false,
          "name": "IPFS_hash",
          "type": "string"
        }
      ],
      "name": "CertificateRegistered",
      "type": "event"
    },
    {
      "anonymous": false,
      "inputs": [
        {
          "indexed": true,
          "name": "certificate",
          "type": "uint256"
        },
        {
          "indexed": false,
          "name": "issuer",
          "type": "address"
        },
        {
          "indexed": false,
          "name": "recipient",
          "type": "address"
        }
      ],
      "name": "CertificateIssued",
      "type": "event"
    },
    {
      "anonymous": false,
      "inputs": [
        {
          "indexed": false,
          "name": "owner",
          "type": "address"
        },
        {
          "indexed": false,
          "name": "IPFS_hash",
          "type": "string"
        }
      ],
      "name": "FiledataRegistered",
      "type": "event"
    },
    {
      "constant": false,
      "inputs": [
        {
          "name": "IPFS_hash",
          "type": "string"
        }
      ],
      "name": "registerIssuer",
      "outputs": [],
      "payable": false,
      "stateMutability": "nonpayable",
      "type": "function"
    },
    {
      "constant": false,
      "inputs": [
        {
          "name": "IPFS_hash",
          "type": "string"
        }
      ],
      "name": "registerRecipient",
      "outputs": [],
      "payable": false,
      "stateMutability": "nonpayable",
      "type": "function"
    },
    {
      "constant": false,
      "inputs": [
        {
          "name": "IPFS_hash",
          "type": "string"
        }
      ],
      "name": "registerCertificate",
      "outputs": [],
      "payable": false,
      "stateMutability": "nonpayable",
      "type": "function"
    },
    {
      "constant": false,
      "inputs": [
        {
          "name": "_recipient",
          "type": "address"
        },
        {
          "name": "certificate_hash",
          "type": "string"
        }
      ],
      "name": "issueCertificate",
      "outputs": [],
      "payable": false,
      "stateMutability": "nonpayable",
      "type": "function"
    },
    {
      "constant": false,
      "inputs": [
        {
          "name": "IPFS_hash",
          "type": "string"
        }
      ],
      "name": "registerFiledata",
      "outputs": [],
      "payable": false,
      "stateMutability": "nonpayable",
      "type": "function"
    },
    {
      "constant": true,
      "inputs": [
        {
          "name": "IPFS_hash",
          "type": "string"
        }
      ],
      "name": "getIssuerOfCertificate",
      "outputs": [
        {
          "name": "",
          "type": "address"
        }
      ],
      "payable": false,
      "stateMutability": "view",
      "type": "function"
    },
    {
      "constant": true,
      "inputs": [
        {
          "name": "_issuer",
          "type": "address"
        }
      ],
      "name": "getIssuer",
      "outputs": [
        {
          "name": "",
          "type": "string"
        }
      ],
      "payable": false,
      "stateMutability": "view",
      "type": "function"
    },
    {
      "constant": true,
      "inputs": [
        {
          "name": "_recipient",
          "type": "address"
        }
      ],
      "name": "getRecipient",
      "outputs": [
        {
          "name": "",
          "type": "string"
        }
      ],
      "payable": false,
      "stateMutability": "view",
      "type": "function"
    },
    {
      "constant": true,
      "inputs": [
        {
          "name": "IPFS_hash",
          "type": "string"
        }
      ],
      "name": "getAllRecipientOfCertificate",
      "outputs": [
        {
          "name": "",
          "type": "address[]"
        }
      ],
      "payable": false,
      "stateMutability": "view",
      "type": "function"
    },
    {
      "constant": true,
      "inputs": [
        {
          "name": "_recipient",
          "type": "address"
        }
      ],
      "name": "getRecipientCertificates",
      "outputs": [
        {
          "name": "",
          "type": "uint256[]"
        }
      ],
      "payable": false,
      "stateMutability": "view",
      "type": "function"
    },
    {
      "constant": true,
      "inputs": [
        {
          "name": "_issuer",
          "type": "address"
        }
      ],
      "name": "getIssuerCertificates",
      "outputs": [
        {
          "name": "",
          "type": "uint256[]"
        }
      ],
      "payable": false,
      "stateMutability": "view",
      "type": "function"
    },
    {
      "constant": true,
      "inputs": [
        {
          "name": "_id",
          "type": "uint256"
        }
      ],
      "name": "getCertificateIdentifier",
      "outputs": [
        {
          "name": "",
          "type": "string"
        },
        {
          "name": "",
          "type": "uint256"
        },
        {
          "name": "",
          "type": "address"
        },
        {
          "name": "",
          "type": "address"
        }
      ],
      "payable": false,
      "stateMutability": "view",
      "type": "function"
    }
  ],
  "bytecode": "0x608060405234801561001057600080fd5b50612003806100206000396000f3006080604052600436106100c5576000357c0100000000000000000000000000000000000000000000000000000000900463ffffffff16806351eeb551146100ca57806355ff0e761461013357806362812a39146101dc578063632d9ce4146102985780636f4581dc146103ab57806370b09e24146104145780637a8ee24b1461043f578063a0f5f50d146104d7578063b771600714610540578063bb721aab146105d8578063ca93954f14610661578063dda9f46d146106ca578063fef03da314610788575b600080fd5b3480156100d657600080fd5b50610131600480360381019080803590602001908201803590602001908080601f0160208091040260200160405190810160405280939291908181526020018383808284378201915050505050509192919290505050610844565b005b34801561013f57600080fd5b5061019a600480360381019080803590602001908201803590602001908080601f0160208091040260200160405190810160405280939291908181526020018383808284378201915050505050509192919290505050610aaf565b604051808273ffffffffffffffffffffffffffffffffffffffff1673ffffffffffffffffffffffffffffffffffffffff16815260200191505060405180910390f35b3480156101e857600080fd5b5061021d600480360381019080803573ffffffffffffffffffffffffffffffffffffffff169060200190929190505050610b44565b6040518080602001828103825283818151815260200191508051906020019080838360005b8381101561025d578082015181840152602081019050610242565b50505050905090810190601f16801561028a5780820380516001836020036101000a031916815260200191505b509250505060405180910390f35b3480156102a457600080fd5b506102c360048036038101908080359060200190929190505050610c25565b60405180806020018581526020018473ffffffffffffffffffffffffffffffffffffffff1673ffffffffffffffffffffffffffffffffffffffff1681526020018373ffffffffffffffffffffffffffffffffffffffff1673ffffffffffffffffffffffffffffffffffffffff168152602001828103825286818151815260200191508051906020019080838360005b8381101561036d578082015181840152602081019050610352565b50505050905090810190601f16801561039a5780820380516001836020036101000a031916815260200191505b509550505050505060405180910390f35b3480156103b757600080fd5b50610412600480360381019080803590602001908201803590602001908080601f0160208091040260200160405190810160405280939291908181526020018383808284378201915050505050509192919290505050610dd4565b005b34801561042057600080fd5b5061042961101b565b6040518082815260200191505060405180910390f35b34801561044b57600080fd5b50610480600480360381019080803573ffffffffffffffffffffffffffffffffffffffff169060200190929190505050611021565b6040518080602001828103825283818151815260200191508051906020019060200280838360005b838110156104c35780820151818401526020810190506104a8565b505050509050019250505060405180910390f35b3480156104e357600080fd5b5061053e600480360381019080803590602001908201803590602001908080601f01602080910402602001604051908101604052809392919081815260200183838082843782019150505050505091929192905050506110b8565b005b34801561054c57600080fd5b50610581600480360381019080803573ffffffffffffffffffffffffffffffffffffffff1690602001909291905050506112cd565b6040518080602001828103825283818151815260200191508051906020019060200280838360005b838110156105c45780820151818401526020810190506105a9565b505050509050019250505060405180910390f35b3480156105e457600080fd5b5061065f600480360381019080803573ffffffffffffffffffffffffffffffffffffffff169060200190929190803590602001908201803590602001908080601f0160208091040260200160405190810160405280939291908181526020018383808284378201915050505050509192919290505050611364565b005b34801561066d57600080fd5b506106c8600480360381019080803590602001908201803590602001908080601f0160208091040260200160405190810160405280939291908181526020018383808284378201915050505050509192919290505050611a3c565b005b3480156106d657600080fd5b50610731600480360381019080803590602001908201803590602001908080601f0160208091040260200160405190810160405280939291908181526020018383808284378201915050505050509192919290505050611c83565b6040518080602001828103825283818151815260200191508051906020019060200280838360005b83811015610774578082015181840152602081019050610759565b505050509050019250505060405180910390f35b34801561079457600080fd5b506107c9600480360381019080803573ffffffffffffffffffffffffffffffffffffffff169060200190929190505050611d7c565b6040518080602001828103825283818151815260200191508051906020019080838360005b838110156108095780820151818401526020810190506107ee565b50505050905090810190601f1680156108365780820380516001836020036101000a031916815260200191505b509250505060405180910390f35b60011515600860003373ffffffffffffffffffffffffffffffffffffffff1673ffffffffffffffffffffffffffffffffffffffff16815260200190815260200160002060009054906101000a900460ff161515141515610932576040517f08c379a000000000000000000000000000000000000000000000000000000000815260040180806020018281038252602f8152602001807f497373756572206e6f74207265676973746572656420746f207265676973746581526020017f722061206365727469666963617465000000000000000000000000000000000081525060400191505060405180910390fd5b336001826040518082805190602001908083835b60208310151561096b5780518252602082019150602081019050602083039250610946565b6001836020036101000a038019825116818451168082178552505050505050905001915050908152602001604051809103902060006101000a81548173ffffffffffffffffffffffffffffffffffffffff021916908373ffffffffffffffffffffffffffffffffffffffff1602179055507fd44cad3cdd419006c9f1ed0038d0743151290b6bf6168a5b374344aeb501c7a83382604051808373ffffffffffffffffffffffffffffffffffffffff1673ffffffffffffffffffffffffffffffffffffffff16815260200180602001828103825283818151815260200191508051906020019080838360005b83811015610a71578082015181840152602081019050610a56565b50505050905090810190601f168015610a9e5780820380516001836020036101000a031916815260200191505b50935050505060405180910390a150565b60006001826040518082805190602001908083835b602083101515610ae95780518252602082019150602081019050602083039250610ac4565b6001836020036101000a038019825116818451168082178552505050505050905001915050908152602001604051809103902060009054906101000a900473ffffffffffffffffffffffffffffffffffffffff169050919050565b6060600360008373ffffffffffffffffffffffffffffffffffffffff1673ffffffffffffffffffffffffffffffffffffffff1681526020019081526020016000208054600181600116156101000203166002900480601f016020809104026020016040519081016040528092919081815260200182805460018160011615610100020316600290048015610c195780601f10610bee57610100808354040283529160200191610c19565b820191906000526020600020905b815481529060010190602001808311610bfc57829003601f168201915b50505050509050919050565b60606000806000610c34611e5d565b6005600087815260200190815260200160002060806040519081016040529081600082018054600181600116156101000203166002900480601f016020809104026020016040519081016040528092919081815260200182805460018160011615610100020316600290048015610cec5780601f10610cc157610100808354040283529160200191610cec565b820191906000526020600020905b815481529060010190602001808311610ccf57829003601f168201915b50505050508152602001600182015481526020016002820160009054906101000a900473ffffffffffffffffffffffffffffffffffffffff1673ffffffffffffffffffffffffffffffffffffffff1673ffffffffffffffffffffffffffffffffffffffff1681526020016003820160009054906101000a900473ffffffffffffffffffffffffffffffffffffffff1673ffffffffffffffffffffffffffffffffffffffff1673ffffffffffffffffffffffffffffffffffffffff1681525050905080600001518160200151826040015183606001518393509450945094509450509193509193565b60001515600860003373ffffffffffffffffffffffffffffffffffffffff1673ffffffffffffffffffffffffffffffffffffffff16815260200190815260200160002060009054906101000a900460ff161515141515610e9c576040517f08c379a00000000000000000000000000000000000000000000000000000000081526004018080602001828103825260198152602001807f49737375657220616c726561647920726567697374657265640000000000000081525060200191505060405180910390fd5b80600260003373ffffffffffffffffffffffffffffffffffffffff1673ffffffffffffffffffffffffffffffffffffffff1681526020019081526020016000209080519060200190610eef929190611eb2565b506001600860003373ffffffffffffffffffffffffffffffffffffffff1673ffffffffffffffffffffffffffffffffffffffff16815260200190815260200160002060006101000a81548160ff0219169083151502179055507fc0e782e5ce31b3a8ed34a04353667fa795030402831742c8a4b938c2c96ef0333382604051808373ffffffffffffffffffffffffffffffffffffffff1673ffffffffffffffffffffffffffffffffffffffff16815260200180602001828103825283818151815260200191508051906020019080838360005b83811015610fdd578082015181840152602081019050610fc2565b50505050905090810190601f16801561100a5780820380516001836020036101000a031916815260200191505b50935050505060405180910390a150565b60005481565b6060600760008373ffffffffffffffffffffffffffffffffffffffff1673ffffffffffffffffffffffffffffffffffffffff1681526020019081526020016000208054806020026020016040519081016040528092919081815260200182805480156110ac57602002820191906000526020600020905b815481526020019060010190808311611098575b50505050509050919050565b60011515600860003373ffffffffffffffffffffffffffffffffffffffff1673ffffffffffffffffffffffffffffffffffffffff16815260200190815260200160002060009054906101000a900460ff1615151415156111a6576040517f08c379a00000000000000000000000000000000000000000000000000000000081526004018080602001828103825260218152602001807f4f776e6572206e6f74207265676973746572656420746f2066696c652064617481526020017f610000000000000000000000000000000000000000000000000000000000000081525060400191505060405180910390fd5b80600a60003373ffffffffffffffffffffffffffffffffffffffff1673ffffffffffffffffffffffffffffffffffffffff16815260200190815260200160002090805190602001906111f9929190611eb2565b507f02a06e961f494a854b6e0872ec04d686d2b88a6c241ca9874037f1d7e4fe23553382604051808373ffffffffffffffffffffffffffffffffffffffff1673ffffffffffffffffffffffffffffffffffffffff16815260200180602001828103825283818151815260200191508051906020019080838360005b8381101561128f578082015181840152602081019050611274565b50505050905090810190601f1680156112bc5780820380516001836020036101000a031916815260200191505b50935050505060405180910390a150565b6060600660008373ffffffffffffffffffffffffffffffffffffffff1673ffffffffffffffffffffffffffffffffffffffff16815260200190815260200160002080548060200260200160405190810160405280929190818152602001828054801561135857602002820191906000526020600020905b815481526020019060010190808311611344575b50505050509050919050565b61136c611e5d565b600060011515600860003373ffffffffffffffffffffffffffffffffffffffff1673ffffffffffffffffffffffffffffffffffffffff16815260200190815260200160002060009054906101000a900460ff16151514151561145c576040517f08c379a000000000000000000000000000000000000000000000000000000000815260040180806020018281038252602f8152602001807f497373756572206e6f74207265676973746572656420746f207265676973746581526020017f722061206365727469666963617465000000000000000000000000000000000081525060400191505060405180910390fd5b60011515600960008673ffffffffffffffffffffffffffffffffffffffff1673ffffffffffffffffffffffffffffffffffffffff16815260200190815260200160002060009054906101000a900460ff16151514151561154a576040517f08c379a00000000000000000000000000000000000000000000000000000000081526004018080602001828103825260338152602001807f526563697069656e74206e6f74207265676973746572656420746f206265206981526020017f737375656420612063657274696669636174650000000000000000000000000081525060400191505060405180910390fd5b3373ffffffffffffffffffffffffffffffffffffffff166001846040518082805190602001908083835b6020831015156115995780518252602082019150602081019050602083039250611574565b6001836020036101000a038019825116818451168082178552505050505050905001915050908152602001604051809103902060009054906101000a900473ffffffffffffffffffffffffffffffffffffffff1673ffffffffffffffffffffffffffffffffffffffff1614151561169e576040517f08c379a000000000000000000000000000000000000000000000000000000000815260040180806020018281038252602f8152602001807f497373756572206e6f74207265676973746572656420746f206973737565207481526020017f686973206365727469666963617465000000000000000000000000000000000081525060400191505060405180910390fd5b600080815460010191905081905590508282600001819052504282602001818152505033826040019073ffffffffffffffffffffffffffffffffffffffff16908173ffffffffffffffffffffffffffffffffffffffff168152505083826060019073ffffffffffffffffffffffffffffffffffffffff16908173ffffffffffffffffffffffffffffffffffffffff168152505081600560008381526020019081526020016000206000820151816000019080519060200190611761929190611f32565b506020820151816001015560408201518160020160006101000a81548173ffffffffffffffffffffffffffffffffffffffff021916908373ffffffffffffffffffffffffffffffffffffffff16021790555060608201518160030160006101000a81548173ffffffffffffffffffffffffffffffffffffffff021916908373ffffffffffffffffffffffffffffffffffffffff160217905550905050600660008573ffffffffffffffffffffffffffffffffffffffff1673ffffffffffffffffffffffffffffffffffffffff168152602001908152602001600020819080600181540180825580915050906001820390600052602060002001600090919290919091505550600760003373ffffffffffffffffffffffffffffffffffffffff1673ffffffffffffffffffffffffffffffffffffffff1681526020019081526020016000208190806001815401808255809150509060018203906000526020600020016000909192909190915055506004836040518082805190602001908083835b60208310151561190757805182526020820191506020810190506020830392506118e2565b6001836020036101000a03801982511681845116808217855250505050505090500191505090815260200160405180910390208490806001815401808255809150509060018203906000526020600020016000909192909190916101000a81548173ffffffffffffffffffffffffffffffffffffffff021916908373ffffffffffffffffffffffffffffffffffffffff16021790555050807fb16be250054d8205b809d26284c657602bbfc725cfc68daca4dc60a78ff137a73386604051808373ffffffffffffffffffffffffffffffffffffffff1673ffffffffffffffffffffffffffffffffffffffff1681526020018273ffffffffffffffffffffffffffffffffffffffff1673ffffffffffffffffffffffffffffffffffffffff1681526020019250505060405180910390a250505050565b60001515600960003373ffffffffffffffffffffffffffffffffffffffff1673ffffffffffffffffffffffffffffffffffffffff16815260200190815260200160002060009054906101000a900460ff161515141515611b04576040517f08c379a000000000000000000000000000000000000000000000000000000000815260040180806020018281038252601c8152602001807f526563697069656e7420616c726561647920726567697374657265640000000081525060200191505060405180910390fd5b80600360003373ffffffffffffffffffffffffffffffffffffffff1673ffffffffffffffffffffffffffffffffffffffff1681526020019081526020016000209080519060200190611b57929190611eb2565b506001600960003373ffffffffffffffffffffffffffffffffffffffff1673ffffffffffffffffffffffffffffffffffffffff16815260200190815260200160002060006101000a81548160ff0219169083151502179055507f540051ab245198442259c711b2b55dddc858ac44be985b22fca4dba2d00572b03382604051808373ffffffffffffffffffffffffffffffffffffffff1673ffffffffffffffffffffffffffffffffffffffff16815260200180602001828103825283818151815260200191508051906020019080838360005b83811015611c45578082015181840152602081019050611c2a565b50505050905090810190601f168015611c725780820380516001836020036101000a031916815260200191505b50935050505060405180910390a150565b60606004826040518082805190602001908083835b602083101515611cbd5780518252602082019150602081019050602083039250611c98565b6001836020036101000a0380198251168184511680821785525050505050509050019150509081526020016040518091039020805480602002602001604051908101604052809291908181526020018280548015611d7057602002820191906000526020600020905b8160009054906101000a900473ffffffffffffffffffffffffffffffffffffffff1673ffffffffffffffffffffffffffffffffffffffff1681526020019060010190808311611d26575b50505050509050919050565b6060600260008373ffffffffffffffffffffffffffffffffffffffff1673ffffffffffffffffffffffffffffffffffffffff1681526020019081526020016000208054600181600116156101000203166002900480601f016020809104026020016040519081016040528092919081815260200182805460018160011615610100020316600290048015611e515780601f10611e2657610100808354040283529160200191611e51565b820191906000526020600020905b815481529060010190602001808311611e3457829003601f168201915b50505050509050919050565b6080604051908101604052806060815260200160008152602001600073ffffffffffffffffffffffffffffffffffffffff168152602001600073ffffffffffffffffffffffffffffffffffffffff1681525090565b828054600181600116156101000203166002900490600052602060002090601f016020900481019282601f10611ef357805160ff1916838001178555611f21565b82800160010185558215611f21579182015b82811115611f20578251825591602001919060010190611f05565b5b509050611f2e9190611fb2565b5090565b828054600181600116156101000203166002900490600052602060002090601f016020900481019282601f10611f7357805160ff1916838001178555611fa1565b82800160010185558215611fa1579182015b82811115611fa0578251825591602001919060010190611f85565b5b509050611fae9190611fb2565b5090565b611fd491905b80821115611fd0576000816000905550600101611fb8565b5090565b905600a165627a7a723058202b5ebc7c0513eccb6c931de05437d157fc965717d19356f4149c808393032c2a0029",
  "source": "pragma solidity 0.4.23;\r\n\r\ncontract CertChain {\r\n    uint public certificate_counter;\r\n\r\n    // Structs\r\n    struct Certificate {\r\n        string ipfsHash;\r\n        uint timeOfIssue;\r\n        address issuer;\r\n        address recipient;\r\n    }\r\n\r\n    // Mappings\r\n    mapping(string => address) issuerOfCertificate;\r\n    mapping(address => string) issuer;\r\n    mapping(address => string) recipient;\r\n    mapping(string => address[]) allRecipientOfCertificate;\r\n    mapping(uint => Certificate) certificateIdentifier;\r\n    mapping(address => uint[]) recipientCertificates;\r\n    mapping(address => uint[]) issuerCertificates;\r\n    mapping(address => bool) isIssuer;\r\n    mapping(address => bool) isRecipient;\r\n    mapping(address => string) filedata;\r\n    mapping(address => bool) isDataOwner;\r\n\r\n    // Events\r\n    event IssuerRegistered(address issuer, string IPFS_hash);\r\n    event RecipientRegistered(address recipient, string IPFS_hash);\r\n    event CertificateRegistered(address issuer, string IPFS_hash);\r\n    event CertificateIssued(uint indexed certificate, address issuer, address recipient);\r\n    event FiledataRegistered(address owner, string IPFS_hash);\r\n\r\n    // Functions\r\n    function registerIssuer(string IPFS_hash) public {\r\n        require((isIssuer[msg.sender] == false), \"Issuer already registered\");\r\n        issuer[msg.sender] = IPFS_hash;\r\n        isIssuer[msg.sender] = true;\r\n        emit IssuerRegistered(msg.sender, IPFS_hash);\r\n    }\r\n\r\n    function registerRecipient(string IPFS_hash) public {\r\n        require(isRecipient[msg.sender] == false, \"Recipient already registered\");\r\n        recipient[msg.sender] = IPFS_hash;\r\n        isRecipient[msg.sender] = true;\r\n        emit RecipientRegistered(msg.sender, IPFS_hash);\r\n    }\r\n\r\n    function registerCertificate(string IPFS_hash) public {\r\n        require(isIssuer[msg.sender] == true, \"Issuer not registered to register a certificate\");\r\n        issuerOfCertificate[IPFS_hash] = msg.sender;\r\n        emit CertificateRegistered(msg.sender, IPFS_hash);\r\n    }\r\n\r\n    function issueCertificate(address _recipient, string certificate_hash) public {\r\n        require(isIssuer[msg.sender] == true, \"Issuer not registered to register a certificate\");\r\n        require(isRecipient[_recipient] == true, \"Recipient not registered to be issued a certificate\");\r\n        require(issuerOfCertificate[certificate_hash] == msg.sender, \"Issuer not registered to issue this certificate\");\r\n        Certificate memory cert;\r\n        uint id = ++certificate_counter;\r\n        cert.ipfsHash = certificate_hash;\r\n        cert.timeOfIssue = now;\r\n        cert.issuer = msg.sender;\r\n        cert.recipient = _recipient;\r\n        certificateIdentifier[id] = cert;\r\n        recipientCertificates[_recipient].push(id);\r\n        issuerCertificates[msg.sender].push(id);\r\n        allRecipientOfCertificate[certificate_hash].push(_recipient);\r\n        emit CertificateIssued(id, msg.sender, _recipient);\r\n    }\r\n\r\n    function registerFiledata(string IPFS_hash) public {\r\n        require(isIssuer[msg.sender] == true, \"Owner not registered to file data\");\r\n        filedata[msg.sender] = IPFS_hash;\r\n        emit FiledataRegistered(msg.sender, IPFS_hash);\r\n    }\r\n\r\n    function getIssuerOfCertificate(string IPFS_hash) public view returns (address) {\r\n        return issuerOfCertificate[IPFS_hash];\r\n    }\r\n\r\n    function getIssuer(address _issuer) public view returns (string) {\r\n        return issuer[_issuer];\r\n    }\r\n\r\n    function getRecipient(address _recipient) public view returns (string) {\r\n        return recipient[_recipient];\r\n    }\r\n\r\n    function getAllRecipientOfCertificate(string IPFS_hash) public view returns (address[]) {\r\n        return allRecipientOfCertificate[IPFS_hash];\r\n    }\r\n\r\n    function getRecipientCertificates(address _recipient) public view returns (uint[]) {\r\n        return recipientCertificates[_recipient];\r\n    }\r\n\r\n    function getIssuerCertificates(address _issuer) public view returns (uint[]) {\r\n        return issuerCertificates[_issuer];\r\n    }\r\n\r\n    function getCertificateIdentifier(uint _id) public view returns (string, uint, address, address){\r\n        Certificate memory cert = certificateIdentifier[_id];\r\n        return (cert.ipfsHash, cert.timeOfIssue, cert.issuer, cert.recipient);\r\n    }\r\n\r\n}\r\n",
  "sourcePath": "G:\\AnyProjects\\CertChain\\CertChain\\contracts\\CertChain.sol",
  "compiler": {
    "name": "solc",
    "version": "0.4.23+commit.124ca40d.Emscripten.clang"
  },
  "schemaVersion": "3.0.23",
  "updatedAt": "2020-04-21T13:36:29.942Z",
  "devdoc": {
    "methods": {}
  },
  "userdoc": {
    "methods": {}
  }
}